:020000040000fa
:080000000001040000000000f3
:020000040000fa
:10020000af1d22000e7f22000e01880000000000ba
:10021000000020000000e000020032000001200089
:10022000200288000c00070080b126000100200099
:1002300011000700000020000000e0000200320072
:100240000000020000000000882102000000000001
:100250000040da000000fe004440a900a052200047
:100260000000e0000300320000002000a001880030
:100270004440a8000000060091018800800078003a
:100280000000eb0015003700e280400032a0b4000f
:100290009101ba00e280400032a0b4009102ba009d
:1002a000e280400032a0b4000002eb00472bde00e9
:1002b000f507b200602ce10004003a000059eb00a1
:1002c0008301e900fdff3e00040037006128e100e2
:1002d000010032000082eb00040007001101ba00a7
:1002e0000200e000e8ff3a00000006003159ba00c1
:1002f0008301e9000c0032002159ba008301e900b2
:10030000080032000400e00003003a00e2804000f0
:1003100032a0b400f5ff370011d9ba008301e9001b
:10032000faff3a008100e800e180400032a0b4000a
:1003300000000600083e0400000000000e5e0400fd
:1003400000000000dc5e040000000000bc6f040040
:10035000000000003400f800881f7800080020002a
:10036000a80188004f0478000000fa0086c0a900a8
:100370001fe1a80021e1a9000080fa003400f90083
:10038000004006000000fa00240020000409880054
:100390000002eb00c408880014002000e408880074
:1003a00086c0a9008ec0a80021e1a8000080fa0044
:1003b000000006000000fa0024002000f408880075
:1003c000045e8000a4088800045e80000402e80047
:1003d000d408880086a0a9001fe1a9008ea0a8006b
:1003e0000080fa00000006000200fa00000f78000a
:1003f0000002eb00145e88001e027800e45d8800b5
:100400000002eb00f45d8800eaff0700ddff070053
:100410000080fa00000006001000fa003007980083
:1004200041079800520798006307980074079800e6
:100430000002eb0014079800ce0290005e029000cc
:1004400004aab900840278006e0290000402e80059
:1004500004aab900040278000402e80084027800cb
:10046000a4142000848f5200020036000082eb00aa
:10047000390037000002eb00040f78002800370035
:100480000002eb00240798000b0037009e0290004a
:1004900064bc20000482420015c0b300054a780005
:1004a0001e0290000402e800140798002e0290003b
:1004b0000402e80024079800ae0290005e0290005b
:1004c000848f5200f1ff35000002eb0024079800f2
:1004d0000b0037009e02900064bc200004824200a2
:1004e0008042eb00054a78001e0290000402e800fa
:1004f000140798002e0290000402e80024079800d8
:10050000ee0290005e02900004aab9008402780016
:100510002e029000848f5200eeff3c001e0fe80078
:100520004e0290009e027800848f5200d4ff350066
:100530009e02900064bc20000482420025c0b300eb
:10054000054a78007e029000045e88003e0290001a
:10055000245e88000002eb00040078000080fa00ae
:10056000000006000000fa00f45d8000040078003e
:100570000080fa00000006000040da000000fe00e3
:100580001004b100070035009001b10004003400f0
:100590007000b100030035009001b10001003c0083
:1005a00010000500000005006900e10004003500ae
:1005b0006d00e100030034000002b10001003200d0
:1005c00000000500100005001004b1000300350014
:1005d0009001b10001003c00100005000000050082
:1005e000800078001104b100030035009101b100d2
:1005f00001003c000050a0000000060080007800d0
:100600001106b100030035009101b10001003c006a
:100610000050a1000000060064108000e00f5200ae
:1006200006003d00044020007510800005026200b5
:10063000020032000f02ab00feff32000040da0081
:10064000feff37000a00fa00e00f500027003a00d2
:10065000b4fe8000e10f520006003200e7212000c6
:10066000c62120008521200064212000e08f530056
:1006700004003a004721200026212000e520200028
:10068000c4202000000028001400600003003a008d
:10069000800b780007002800148a7300020278009b
:1006a0000c0037008703e900950178006180610044
:1006b00002003a00e08f5300faff3a00150078007c
:1006c000e103600007003200960378000402e900ad
:1006d00087587800e00f520002003200070a20001d
:1006e000f1ff37000400510008003700240020000b
:1006f000c0bf9f00b4bf9f006a805700d1bf9f005a
:10070000e2bf9f00d40b07006fb897000080fa008b
:10071000000006000a00fa00e20f500022003e002e
:10072000b4fe8000e10f520006003200e7212000f5
:10073000a62120008421200065212000e08f5300a5
:1007400004003a004721200006212000e420200078
:10075000c5202000000028001500600003003a00ba
:10076000800b780007002800958a73000540200060
:100770009482620001003a0014a0a0008202780076
:1007800006003700940378000710b200fdff320026
:10079000b103fb00070b78008502e900e08f5200ef
:1007a000f8ff3a000800370034002000c0bf9f0067
:1007b000e2bf9f00b4bf9f00d1bf9f006a80570077
:1007c000a70b07006fb99700020078000080fa00bd
:1007d00000000600889fbe0080047800c0fe8000f4
:1007e000e00f500004003a000e0007000084eb0008
:1007f000e00f500008003500c8fe8000e08f540074
:10080000050032000900440006000700e00f500018
:1008100001003d000084eb00080078004f04be009a
:1008200000000600e00f500004003a00a4fd210083
:10083000c4fe880000027800060037000082eb004a
:10084000a51d2200850f500002003e00c0fe88005a
:100850000002eb00040078000000060000047800ad
:10086000e1000700080078006bff0700a4fb2100ef
:10087000e4874700d5fd8000889fbe008a9fbe00a8
:100880008c9fbe008e1f7800e08f52000b003a0054
:1008900024029800e402420034fe8800d5fd88005e
:1008a00045fe8800a44290000504a000254298005f
:1008b000e44290000504a0006542980067044000ef
:1008c000a4fd2100250020004244de00a91d2200d5
:1008d0004244dd00848454000507440011000900ef
:1008e0008504d800dc1d220032fe8000040656007c
:1008f00080bf9f000e0747000003eb00e4054400a3
:100900000806460002003700160020000d0178009e
:100910002242900061026200020032000a003700a9
:100920001509780092027800254290006102620069
:10093000fbff320008024100848f520002003900a0
:10094000e00f54003f003d00920678000d00a1002a
:10095000828f5600edff3e00e10f5300eaff3a00a0
:100960000fba9700840f540002003600890f54001c
:1009700010003900614ab900b0ff2f0001002000cb
:100980006143b8000402500085825800840f530070
:10099000858f5b00020035000b05780006003700ec
:1009a000110009000986d8000982b9000405780001
:1009b000010037000e0578000a00780085ff070067
:1009c000e10f400005003a000b0578000b007800ad
:1009d00080ff0700e10f40002b00320044fe800042
:1009e000000a780044fe800064034200a4429000a4
:1009f000860f5000020032000504a00001003700fd
:100a00000504a1002542980064055500a4fb2100bf
:100a10000a0540000a0878004afe8800040d7800a4
:100a200045fe80000003eb00254290000404a00076
:100a3000a4429800204290000404a10024409800a1
:100a4000b2ff370034fe8800848f52000700360062
:100a50001403be008042eb0016fe880027fe8800cb
:100a6000120a780034fe800025429800224290004d
:100a700037fe80000404a000070978002441980094
:100a800064004100010037000000eb004f077800d0
:100a90004f06be004f05be004f04be004f00b10020
:100aa00000000600e00f5000080032006400500013
:100ab00034fe8000840f50000100310030fe8800b9
:100ac000204290000404a100244098000000060089
:100ad000889fbe00000478008a9fbe0081047800d1
:100ae000e08f540005003a00e00f5400320032005d
:100af00008007800ebff070030003700e00f5400db
:100b000004003a000900780058ff070080047800cc
:100b10002a003700640254009405780068fa9700b0
:100b2000610262000200320008007800ddff070069
:100b3000090078004dff070080047800e08f540022
:100b40001e003200888f54001b00320069bd9700e0
:100b50008885550009055500c2ddde0042d5de005e
:100b60000a0178008b0f5500010036000b01780058
:100b70004211dd00880078000900780013000700aa
:100b8000888f54000d0031004255dd000a85440075
:100b9000880f5500090036000804550014fe800037
:100ba00025fe800042c4de004244dd00088444008b
:100bb000048cbe000100370088047800090078002a
:100bc0004f05be004f04be00000006000002780082
:100bd00002003700315a78000201e900e00f5100ad
:100be000fcff3a000000060000000600000278004a
:100bf0008042eb00b4cf1200fdff3a000080ea0013
:100c000000004200000006000c00fa00889fbe00b1
:100c1000f4ff270000047800d4bf9f008004eb009d
:100c200088bf9f0099bf9f00a8bf9f00240c200091
:100c300078815700b4bf9f00cfb0970070805700f5
:100c4000970107000fba9700094a78000fba97007a
:100c5000080052004f04be000080fa0000000600a9
:100c60000c00fa00a0bf9f00c0bf9f00dfff07007d
:100c7000140c2000b0bf9f00f0bf9f00d4bf9f00a6
:100c800074815700efb097006c8057003400070064
:100c90000080fa0000000600881f780060fe8000d7
:100ca0001a05070000047800080078003efe0700df
:100cb000e00f5000f9ff3a00e10f4400030032005a
:100cc00061fe800008007800d50507004f04780019
:100cd00000000600889fbe00000478008a1f78008c
:100ce000814478000205780004fd2f0008024200cc
:100cf000e90f520002003e00040478000f003700a4
:100d00000800780030fe0700e00f500005003200b8
:100d1000e00f5500030032000800780030fe0700a5
:100d2000000478000800780015fe070000c2eb0000
:100d3000e00f5000060032007805b1008984fb0006
:100d400000c2eb00890f540001003d00084278000a
:100d50004f057800044078004f04be0000000600f4
:100d60000002eb00f087470060fe8800889fbe000d
:100d7000044478008a9fbe00810478008c9fbe00e6
:100d8000020578008e1f7800e4b79f0088f79f0067
:100d9000380137008885fb008904e8000b007800e3
:100da00001fe0700e00f500002003200baff07000a
:100db0003001370055c2b300854f540020013a007e
:100dc0000044780024c0b3000047780084457800d0
:100dd00009007800040037004bc0b3000100370061
:100de0002bc0b300090078003942780095c6b300e3
:100df000854f5200970032001b003e00e6c25200b1
:100e0000854f52006900320010003e00f7c25200c8
:100e1000854f52002e00320006003e00e04f520087
:100e200027003200a5c2b300854f520076003a0079
:100e30002500370085c5b300854f520072003a0087
:100e40009bef9f00140020001a00370045c6b30036
:100e5000854f52007f003200e4c24200854f5200ad
:100e600069003a00deff370035c7b300854f5200f6
:100e70001b00320007003e00e7c25200854f5200bf
:100e800013003200e3c24200854f52005e003a0078
:100e90007400370055c7b300854f52006d00320013
:100ea000e3c24200854f520057003a009bef9f007b
:100eb0000002eb00e4b79f0005c1b3006b003700f0
:100ec0000ff49700820037000e47e800c5ff370097
:100ed000e2cf5500c0ff32008bc0b300c1ff370026
:100ee0006dff0700e04f570002003a004a02780009
:100ef000f4b79f0060fe800084040700800578003e
:100f0000e18f450013003a000ff497000b007800c2
:100f1000d50037001902fb00848f550004003a0009
:100f20008c0278008904e800f5b79f0017003700ad
:100f3000e04f570001003a000b5e78000844e900da
:100f40000d00320060fe800070040700800578000c
:100f5000010037007fb697000b02e800e10f520056
:100f6000080036000b0078008ffd0700e00f5000ee
:100f7000e8ff3200030037008c027800f5b79f00cd
:100f8000020037000c027800f4b79f00e04f5700d2
:100f9000b8003a008ff297007fb297008542e800d0
:100fa00085f79f000e4a7800b2003700e04f5700e7
:100fb00005003a008ff297008542e80085f79f0010
:100fc000ca05780001003700ffb5970060fe800079
:100fd0004e040700e10f400002003a000ff49700b2
:100fe000a1003700e04f570001003a00805d780013
:100ff0000844e9004240a900f4ff3c008b0278005d
:10100000f5b79f009b0037000484fb0004fd2f0010
:1010100008024200e90f520009003e001c040700cc
:10102000090278000044780084047800b402fb00d0
:101030000503b100e98f5200fbff360069ff37005e
:1010400060fe800031040700800f540080003a00e9
:1010500088003700a4c0b3009bef9f00a4ef9f005f
:10106000030037009bef9f0085c0b300a5ef9f00f2
:1010700009ff070060fe8000240407000042eb0027
:101080008005780084ef9f00d4022000848f5500f3
:1010900005003a0060fe80001c04070015c0b30084
:1010a0008005780085ef9f006fb19700afe897004b
:1010b0000b00780007ff0700e14f40000c003a00ea
:1010c0000ff4970061fe80000b007800d404070045
:1010d000e04f54006b003a0064fe80003400900042
:1010e00070006000680032000080eb00660037008e
:1010f00004032000848f550015003a0060fe800034
:101100000204070084072000840f500004003a0006
:101110006fb29700e00f5200070032000a0037005c
:1011200084052000840f500007003a00efb29700ba
:10113000e08f52000400320060fe8000f3030700dd
:10114000800578000200370061fe8000b4040700cb
:10115000afea97000582fb0005002000a4b79f00be
:10116000b5b79f006066b8002fb19700bfb1970078
:101170000c00be000844e900780707006fb1970033
:101180000006be00afe897000b007800d1fe070014
:101190000080fb00010020000006460081864e0012
:1011a000e04f54000900320060fe8000d7030700c2
:1011b0006fb1970080057800afe897000b007800ca
:1011c000c4fe0700e14f4000e7ff3a006fb197000f
:1011d000afe897000b007800befe0700e14f40002b
:1011e00003003a0061fe80000b0078008c040700c9
:1011f0000fea9700e04f520002003200600616002e
:10120000e0861e00e04f57001a003a008ff2970068
:101210000a85e9008542e8001fea970085f79f00ec
:10122000e44f520003003a001a0278000c8abe0014
:10123000100037001a0278000c0a78000d00370001
:1012400060fe8000b1030700808f55000900320066
:101250000ff49700e10f40000300320061fe8000b0
:101260006f04070007003700e04f540005003a0004
:101270000500370019447800e04f5400c5fe3a00dd
:101280000ff497000880fb004f0778004f06be0060
:101290004f05be004f04be000f01b1000000060064
:1012a000ef03b000889fbe008a9fbe008c9fbe00e7
:1012b000800678008e1f78000007eb00d1af9f00fa
:1012c000a2b79f0066033700dfa8970054c2b3009f
:1012d0008100e800d1af9f00844f500006003a0023
:1012e000010278000006eb0001c3b30000c2b300a6
:1012f000b7c2b3000e0037003d0290000404b200f4
:10130000040032001d027800004a7800840ee800d4
:10131000050037000000fb008d007800fc0307008b
:10132000e10f40004e0332000e07e8004c03370087
:1013300084027800d2c2b30034437800824f530055
:101340000900320005003c00804f530008003200c5
:10135000874f53000c003a0007003700814f5300bd
:1013600009003a00060037000c30a000f0ff3700fb
:101370000c00a000eeff37000c10a000ecff3700bf
:101380000c20a000eaff3700620266000100320074
:101390000c00a10068026600010032000c20a100d0
:1013a0000602fb000403b100e90f52000c003e00ee
:1013b000050378000002eb00b603fb006a22b900c7
:1013c0000703b10086027800048243009603fb0005
:1013d0000703b100e98f5300f7ff3600080037001c
:1013e0000002eb00a7c2b300874f530004003a008d
:1013f000afb197008502e80043027800a3b79f00d1
:101400000003eb0096b79f00e6c2b300954f1300b0
:101410000c003a000ce0a00064435300d54f1300c9
:1014200003003200050378000000eb0009003700dc
:10143000afb397008502e80047047800a7b79f0084
:1014400098b79f0005037800090037006a00b900cb
:101450000080430086027800b603fb000703b1005a
:10146000e98f5300f9ff360090b79f00f5ff370072
:10147000b6427800cac6b300d6af9f008acf5200ea
:10148000250032000f003c0036c6b30086cf520064
:101490009e00320004003c00e0cf5200f502320012
:1014a0006b4353000f00370046c6b30086cf52008f
:1014b000170032006543430086cf5200b2003a0065
:1014c0001300370036c7b30086cf52001f0032002a
:1014d00007003c006443530086cf520014003200e2
:1014e0000643e80086cf5200a7003a0013003700f9
:1014f00056c7b30086cf5200aa00320063434300b0
:1015000086cf5200a0003a00e5779f000d0037001b
:10151000e5779f00a5003700f00366000501200075
:1015200001003200050028000c867200d0ff370051
:10153000e5779f000c60a0009c003700e5779f00d6
:101540000c50a0000c70a00098003700afb59700b9
:10155000e5779f00cb027800abb79f00b5b79f003f
:10156000e08f520002003a00e1f82100b1b79f007d
:101570003fb397008002eb00010037008502e800ce
:10158000e6c37a00e0cf5300fcff3a00c5b79f00e6
:101590001fb19700e00f510005003200cfb1970056
:1015a000830f51000200310082027800c5b79f000e
:1015b000cfb297000004eb00850f52000100360007
:1015c000050452006806660009c2b3000f0032002d
:1015d000290037003d0290000404b20004003200ec
:1015e0001d027800094a7800840ee80005003700e3
:1015f0008d0078000002200045030700e10f400045
:10160000010032000e07e8000804e900e00f540072
:10161000f0ff3a000084eb0017003700bd02900095
:101620000504b20009003200880278009d037800aa
:1016300035437800864b780005047800870ee80073
:10164000e04f53000a003a0011003700880278008a
:101650008d0078003500fb0084bf9f0005047800f2
:101660002b0307000fba9700e10f4000080032007b
:101670000e07e800060037000c0278000806780024
:101680003fb49700cfb497005fb59700efb59700d0
:10169000890278008504e900e08f5200dfff3a00fc
:1016a000b8b79f00c9b79f00dab79f00ebb79f009c
:1016b0000c04780009c2b30004067800e00f56005d
:1016c0000f003a00660237003d0290000404b200a9
:1016d000040032001d027800094a7800840ee800f8
:1016e000050037008d007800000220000803070085
:1016f000e10f4000010032000e07e8000804e90095
:10170000e00f5400f0ff3a0055023700afb09700e9
:101710007003660041047800a1b79f00cfc4de00cb
:10172000090578008a0578000800be000a01be009d
:101730004800de00c80add0000807200e0779f00ec
:10174000e00f530009003200e04f50000700320064
:10175000e14f40000500320026002000f0779f0096
:10176000887f9f00c6b79f00030037001700200046
:10177000c7b79f00f8779f0078fb2f0008844700c9
:10178000b8b79f0082ff370069fb2f001a002000c6
:1017900089844700e5779f00b9b79f00cab79f00cb
:1017a0007bff3700e5779f000c0cb3008c027800bc
:1017b000050cb2003b003a00e00f560005003d006a
:1017c000afb297004501be004500be00a5b79f001f
:1017d0000f003700f0026600120032002fb49700ad
:1017e0004803be00f69f9f0087a79f00a8b79f00f1
:1017f00098029000cfaade0095a79f00a5a79f00a2
:101800007f9897008fa097001fa19700afa1970026
:10181000b0b79f00c1b79f00d2b79f00e3b79f004a
:101820000b003700afb09700c102780005047800c4
:10183000cfc4de00090578008a057800a1b79f00b3
:10184000b8b79f00c9b79f00dab79f00ebb79f00fa
:101850003fb09700cfb097005fb19700efb197000e
:10186000e00f5000e08f5800e00f5900e08f590062
:1018700032003d006000b8006011b8003fb497002e
:10188000cfb497005fb59700efb597003c00b30069
:1018900008045000898458000a0559008b855900b6
:1018a00022003700e00f560005003d00afb2970060
:1018b0004501be004500be00a5b79f000f003700e0
:1018c000f0026600120032002fb497008004eb0093
:1018d0004803be000005eb0096af9f00a7af9f0036
:1018e000b9af9f00caaf9f001fa89700afa897008d
:1018f0003fa99700cfa99700a8b79f00b0b79f0056
:10190000c1b79f00d2b79f00e3b79f000b0037001d
:10191000afb09700c1027800a1b79f00050478001e
:10192000090020000a0020000b002000b8b79f002b
:10193000c9b79f00dab79f00ebb79f009fb497002d
:10194000e08f54000d003a001a0020003fb09700cd
:10195000cfb097005fb19700efb197009ab79f00a3
:10196000e00f5000e08f5800e00f5900e08f590061
:10197000020032008000eb0091b79f000c0178005c
:1019800005042000020cb20082b79f00850f5100b1
:101990003400320003003c00e00f51000800320028
:1019a00048003700050820008fb19700858f51004f
:1019b00014003200050c2000858f510041003a00d0
:1019c00046ed210015c0b3003600be003601be0052
:1019d0003fb49700cfb497005fb59700efb597007d
:1019e0000040e10001c8e10002d0e10003d8e100bd
:1019f000330039008542e800f4cf5200f2ff3a008c
:101a00002f00370015c0b3000001200001002000a6
:101a10006011b8003fb49700cfb497005fb597004e
:101a2000efb597000040e10001c8e10002d0e100fd
:101a300003d8e10022003900490020000000d00056
:101a40008180d2000281d2008381d2008904e90022
:101a5000faff3a008542e800f0cf5200edff3a006d
:101a60001700370015c0b3008000200001002000df
:101a70006011b8003fb49700cfb497005fb59700ee
:101a8000efb597000040e10001c8e10002d0e1009d
:101a900003d8e1000a003900390020000000d0001e
:101aa0008180d2000281d2008381d2008904e900c2
:101ab000faff3a008542e800f5cf5200edff3a0008
:101ac000e5779f006f7597009fb597008a02fb002e
:101ad0008b8f520002003d00eb779f00040037001f
:101ae0001fb09700850f500001003d0095b79f0083
:101af000e00f520003003200e302660001003200f2
:101b00000402e90005002400850266000600320098
:101b10009fb09700810f5200020034000102520072
:101b2000010037000002eb006f7197008001eb00ad
:101b30008202fb00f3af9f00850f520002003400c9
:101b400085025200f5af9f00640266003b00320040
:101b5000e202660061026600e08f5200110032006e
:101b6000bd0290000504b200080032009d0278001a
:101b7000b6c2b300e00f52000100320006c3e80015
:101b8000864a7800850ee80015003700b002200074
:101b9000e00f5200010032000080e8008d00780064
:101ba0000c003700e00f52000e0032003d029000a2
:101bb0000404b200050032001d02780005c2b30023
:101bc000054a7800840ee800050037008d00780093
:101bd00000022000ce010700e10f400001003200aa
:101be0000e07e8007faa9700e00f52004f00320076
:101bf00008c3b300840478003d0290000404b200de
:101c0000040032001d027800084a7800840ee800c3
:101c1000050037008d00780000032000bc0107009c
:101c2000e10f4000010032000e07e8008904e900de
:101c3000f1ff3a00f9af9f003c003700ffaa970080
:101c4000e08f5200140032006802660012003a0071
:101c500008c2b300850478003d0290000404b2007d
:101c6000040032001d027800084a7800840ee80063
:101c7000050037008d00780000022000a401070055
:101c8000e10f4000010032000e07e8008904e9007e
:101c9000f1ff3a00f9af9f00e202660061026600c0
:101ca000e08f520011003200bd0290000504b20026
:101cb000080032009d027800b6c2b300e00f520067
:101cc0000100320006c3e800864a7800850ee8006d
:101cd00015003700b0022000e00f52000100320072
:101ce0000080e8008d0078000c003700e00f520003
:101cf0000e0032003d0290000404b20005003200e4
:101d00001d02780005c2b300054a7800840ee80081
:101d1000050037008d007800000220007c010700dc
:101d2000e10f4000010032000e07e8001fb39700ea
:101d3000c5ec21000602e900f0046600c223dd00c4
:101d40000c057800c7a79f000a02b2006323b90000
:101d5000e99f9f00060478004322dd00b8a79f009a
:101d600085024200da9f9f00e5af9f00a300370085
:101d70009fb597000fb097008b05e9000104200084
:101d80009bb79f00810f50007300320003003c009e
:101d9000e00f5000080032007e00370004082000e9
:101da0000fb19700840f510056003200040c200040
:101db000840f510077003a00e00f56001f003d00ed
:101dc000efa997003304be002305be003fb0970083
:101dd000cfb097005fb19700efb197000802be0047
:101de0000a03be000e0507000802be000a03be007b
:101df000e0779f000000fb00cf80de00010178004b
:101e0000820178006f0507003fb29700cfb29700bc
:101e10005fb39700efb397000002520081825a002f
:101e200002035b0083835b00b4b79f00c5b79f00cc
:101e3000d6b79f00e7b79f002e003700ef9a9700b4
:101e4000e08f5200220032006fab97003fb2970044
:101e5000cfb297003604be002605be000400be00c7
:101e60000801be0084bf9f00f5b79f000005eb008e
:101e70002a0407000801be00e0779f000000fb0075
:101e8000cf80de00350407000fba9700ffb297003d
:101e90008aaf9f000004520081845a00d8a79f0097
:101ea000e9a79f008004eb00f9a79f005fa09700bf
:101eb000efa097007fa197008fa99700b0b79f0070
:101ec000c1b79f00d2b79f00e3b79f00090037005a
:101ed000efa897003fb197001102780011000900a8
:101ee0000481d800a4002000110009000480d8005b
:101ef000e1779f00ef7197000343b000e3779f0005
:101f000024003700d4f72100df9a9700e08f5200b9
:101f100001003200c4f621003fb09700cfb0970017
:101f20005fb19700efb197004fa397000603e90058
:101f3000050033008301d1000281d3008180d300ea
:101f40000080d300f9ff37006f0060006440780024
:101f5000e0779f000f0037003fb29700cfb29700a5
:101f60005fb39700efb397003fa497000804e90020
:101f7000050033008703d1000683d3008582d30098
:101f80000482d300f9ff3700674262000443b000c7
:101f9000e4779f003d0290000404b2000700320085
:101fa0009d0278006f729700844a7800850ee800e1
:101fb000e04f520007003a0007003700ef74970027
:101fc0008d0078000900fb00d1000700e10f400000
:101fd000010032000e07e8004fa59700bfa597004b
:101fe0006fa8970064055500e38555006800500010
:101ff000caa79f00bba79f00e0af9f009fb09700bc
:10200000e08f50005aff3a00680666001400320064
:102010007fa99700e00f51001100340008c2b300ff
:10202000820478003d0290000404b20004003200f3
:102030001d027800084a7800840ee8000500370089
:102040008d00780000022000b1000700e10f400081
:10205000010032000e07e8008904e900f1ff3a00b0
:10206000dfa9970013407800e0779f00e04f500011
:1020700095fc3a000e0078004f0778004f06be002e
:102080004f05be004f04be00ef03b1000000060084
:1020900006c2b3000002780004007800b042780065
:1020a00086cf5200fbff3200e9cf5200f9ff320029
:1020b000d6c2b30086cf520003003a000002780077
:1020c00016c0b300050037000043eb00b7c2b300f1
:1020d00087cf520001003a00000278000000eb00b8
:1020e000020037006a00b90000804200b402fb0021
:1020f0000503b100e98f5200faff3600e04f5300ac
:10210000010032000000ea0000000600881f78008d
:102110000004780038029000f1026200e18f520062
:1021200006003a00840278000520b2000800320060
:1021300098029000e08f52000500320038029000b3
:102140000080eb000440a000340498002000370019
:102150000490a1003404980018029000e00f52008f
:10216000070034000402e900140498001802780003
:1021700094427800040ce8000580fb00050037005d
:10218000380290000404b200ecff3a000800780026
:1021900011000700380290000408b2000c003a0059
:1021a000fa0f500008003a0028029000e00f520099
:1021b000e2ff320018029000180ce9000402e80067
:1021c00014049800ddff3700ed0f5000e2ff3200ed
:1021d0004f047800000006000200fa00889fbe004d
:1021e000000478000002eb008a9fbe0014049800ef
:1021f0000080eb0038029000610262004000320073
:1022000004fd21008042eb0094cf12000f00320049
:10221000abfb21002a102000c9fd2f008b84440055
:10222000390290002410b2008a0f520002003a00d6
:102230000900780099000700ec8444008b8f54005b
:10224000f7ff3a0004fd2100004aeb00580190001e
:10225000e00f51000e003a0012049800ea80570087
:102260001200200048009000f6f80700e10f50002f
:1022700003003a006ff297000480fb002000370053
:10228000380290000440a000340498001300370086
:10229000a800900048009000eaf807001004980099
:1022a000e00f500003003200e10f40000d003a0043
:1022b00003003700380290000440a00002003700fd
:1022c000380290000403b30034049800a802900080
:1022d0000002eb00050c7800140498000080eb006d
:1022e00007003700280290000000e900040c780085
:1022f0001004980094427800040ce8000580fb006c
:102300004f05be004f04be000080fa00000006002a
:10231000889fbe00010478008084eb0038029000a2
:10232000e20262003b003200040378009802900051
:102330000620b20002003a00e08f520035003a0059
:102340000490a0008004780034049800f90fb200d3
:10235000e08f520002003a00a8029000050c7800bd
:10236000ea8f540005003a000408b20003003a0066
:1023700088007800d0002000e5ff070018029000d8
:10238000d8029000850f52000b0032000402e800d2
:1023900015c0b3001404980018027800094a7800a8
:1023a000040ce80004fd2100054a7800ea8f54007f
:1023b00018003a00050037000940780088007800ce
:1023c0006000070080047800120037003802900097
:1023d0000410b2000f00320018019000a800900015
:1023e00048009000cbf8070018029000840f5000be
:1023f00004003200380290000403b3003404980053
:102400008084eb000002eb00140498002802900086
:10241000040c7800090078004f04be00000006009c
:10242000e10f40001c003200310290001420b20085
:10243000e10f520015003a0021039000e00f530015
:102440001200320011029000d1029000850f52005c
:102450001000320091027800868f520002003a008c
:102460008508e800020037000402e80094009800a4
:102470009102e90031029000850878000404b2005e
:1024800005003a00804a7800000006000080eb005a
:10249000000006000080eb0000000600881f7800a6
:1024a0000004780038009000000278001420b20088
:1024b000e10f520005003a000002eb0014049800fe
:1024c00028029000040c7800190037008002780080
:1024d000242020002520b2000000eb00848f520051
:1024e00016003a00a8009000808f500013003200c0
:1024f00018019000800f5100100032004800900039
:1025000084f8070018029000840f50000300320086
:10251000380290000403b30034049800380090009f
:102520000002eb001404980028029000040c7800cc
:102530000002b200010032000080eb004f0478007e
:10254000000006000200fa00889fbe000104780027
:10255000a0ff9f0038029000840278000504b200ba
:10256000020032000000fb0035003700e20262008a
:1025700005003a000403b3001504980034049800e1
:102580000080eb002e003700d8049000e08f54004c
:1025900006003a0012002000e68057004800900034
:1025a0005cf807001904980023003700a802900087
:1025b000e08f520008003a0045fd21000430a000e1
:1025c00025049800050c78003404980025002000ac
:1025d000550498001504980018019000a800900078
:1025e000480090004bf80700280290008082eb0022
:1025f00015049800affa9700054a7800040ce8002b
:102600002ffa9700ea4f52000b003a003802900070
:102610000410b2000800320018019000a8009000d9
:10262000480090003bf807000002eb00a802900071
:1026300014049800050c78002ffa97000400fb00a2
:102640004f04be000080fa000000060003f0a20064
:10265000889fbe008a9fbe008c1f7800ae010700d5
:10266000b50133006450e1004f0032006420e10006
:102670005200320003826c0007003b000905d000c5
:102680000306d000820f54000c065d0002003900e2
:102690000200320089017800030678008582550027
:1026a00004003d000003fd008103fd008502ea00f7
:1026b0008b854200840f720002003b006000100016
:1026c000e08018006011b8000005eb007a28e100f6
:1026d0000a00390006007800c75ddd00f707b20088
:1026e000878075002d003700828171000a01780013
:1026f000610560008180d1000080d3008502e9007f
:10270000f9ff3b00060440008784480002003b00bc
:1027100060041400e0841c000988a3000700320054
:102720008a81710082817100610164008904d10095
:102730000884d3008b05e800170037000978a30050
:1027400013003a000b00e000130034008b05e90091
:102750000804440089844c000a4474000978a300ea
:102760000d003a000b00e000070034008b05e90083
:102770000804440089844c0001003a000b0020004a
:102780000978a300f7ff32000001eb0002003700d8
:10279000828171000a017800240107000cf0a70073
:1027a00001f0a0006d0137006420e10002003a0052
:1027b000838f6c006d0133000801be000200be0073
:1027c00066013700889fbe008a9fbe008c1f78007c
:1027d000510107001002200002003b00f074880045
:1027e000550137008a0062006408e10002003a00e7
:1027f000f07488005d0137006108e100fcff3200e1
:102800000800be00030478007000070001f0a1007a
:102810000900070008f0a600040037000001be0010
:1028200091042400b0fd200088ff070009f0a700f4
:1028300001f0a20049013700889fbe008a9fbe00b8
:102840008c9fbe000004be001e0107000800be00f1
:10285000890678006420e100080039000400320095
:102860000160a00012022000f274880053003700bb
:1028700091fc2300b0fd20004e0037000006eb0065
:1028800009f0a10003f82300020020000800be00a8
:102890009f0007000600340001f82300000020001c
:1028a0000801be00490007000004be002c00200003
:1028b0000800be0093e82300320a230094000700ba
:1028c000120034000801be00d1fd2300703d2b0032
:1028d0005fff07000005be00b3f32300f27a260075
:1028e0000800be002401070003f8230002002000b6
:1028f00056ff07000801be0055ff07000a01be0091
:10290000320007000004be000c06e8000800be000c
:1029100001f0a10002002000039823007c000700c2
:102920000800be00160035000801be0012010700b5
:102930000005be0032cd2c0043fb230044ff0700fe
:10294000809fbe001269280003d52b000a00be003c
:1029500009010700620f210013ef2b003cff070065
:102960000a01be00040107004f01be001700070066
:102970000801be00000107000801be0034ff070087
:102980000c00e0000b0032000c10a70001f0a200c8
:10299000b2fd200093fc23006260e10004003200dd
:1029a00022a9200063f023000c10a70063f8230085
:1029b00027ff07000df0a70001f0a2004f06be00a0
:1029c0004f05be004f04be0000000600889fbe00f9
:1029d0008a9fbe008c1f7800cf000700d60033000e
:1029e00003866c006450e1002e0032006420e10098
:1029f000330032006150e1002f0032006120e1001d
:102a00003100320085855500eb07b0000900200039
:102a100008042000050037000804440089844c00a5
:102a20000a0031000603430087834b000001530076
:102a300081815b00f8ff33000203be000800a000a4
:102a40000804440089844c00f6ff3900c639dd00d3
:102a50008301730001003200130020008904d100bb
:102a60000884d3000998a300050032000800a700dd
:102a70000300a0008904d1000884d3008b05e8007e
:102a80008904d1000884d3000001eb000281d20048
:102a90006600070001f0a1000cf0a70001f0a00003
:102aa000ae0037006420e100b00032000801be0033
:102ab0000200be00f7ff37006120e100ab003200ea
:102ac0006000b800f3ff37000000200001f8270085
:102ad000f0ff3700839f68000100e00002003d0026
:102ae00060001000e08018000300e00002003d00dc
:102af00060011100e0811900080107004f00e000ab
:102b000002003b0060001000e0801800000006009a
:102b10001400200054023700f4ff2f005202370047
:102b20000001be00670007000470a70003f0a100c9
:102b30006509b100160032000d0035006828e1007b
:102b400006003500f0ff2f00f1ff27000300e00032
:102b500013003b00010028000000050000004000b9
:102b6000818048008502e900fcff3a000800370038
:102b7000f88f420002003c008000eb0000000500de
:102b80008100d1000080d3008502e800fcff3a00fc
:102b90000300e00002003b0060001000e08018002d
:102ba000000006000001be00460007000470a700f8
:102bb00003f0a10003f8a30013003a006509b10077
:102bc00010003200090035006928e10002003500dc
:102bd000010028000000050000004000818048003e
:102be0008502e900fcff3a0000000600f88f420071
:102bf000050035008100d1000080d3008502e80087
:102c0000fcff3a00000006008000eb000000050019
:102c10004f89de00820178002e0237006011b80073
:102c20003c023700040020000f0237008100200022
:102c3000618055000b003d000b00200061fe2f005d
:102c40000100e1001d003400828171006101640017
:102c50008904d1000884d3000000e800faff3a009c
:102c60007100200061006400030070000200600039
:102c70000900320061044400e0844c000988a5008a
:102c8000050032008b05e8006808e10002003a0008
:102c90008904d1000884d300f20f20000258e1001b
:102ca00005003d00c75ddd00f907b20089807500b1
:102cb00008007800000006000bf827008b00780061
:102cc00000000500c70ade00f107b200f50fb200f0
:102cd00008003200e1cf4200020032000170a00083
:102ce00024000500810f7000010032000408050077
:102cf00044000500810f700002003a001400050036
:102d00008502e9000000400081c04800fcff3b0054
:102d10000170a000240005000004be00e9ff0700c8
:102d20000003be000405be000200be00e5ff070070
:102d3000844f7500000006000200be006450e100f0
:102d4000050036006420e100020036000968a30097
:102d500001003a000800be000160a0004f067800a4
:102d60004f05be004f04be0000000600f0ff2f001c
:102d7000f1ff2700f9ff3700889fbe008a9fbe0041
:102d80008c1f7800e4ff0700ebff330003866c0024
:102d90006450e100240032006420e100270032008a
:102da0006150e100220032006120e1002100320088
:102db0008b854200eb07b1000134b800003ab8003f
:102dc0000804420089844a00013ab8000030b80083
:102dd0008880400009014a000400330000004000e0
:102de00081804800020149008b05e900c909dd0026
:102df000830170000100320013002000c814de00bf
:102e00004814dd004709de001200b200c808de00e9
:102e10000884700085ff070001f0a1000cf0a700f6
:102e200001f0a000cdff37006120e100cfff3200ac
:102e30000801be000200be00f7ff37006150e1004c
:102e4000fcff3a00c9ff3700889fbe008a9fbe0082
:102e50008c1f78000004be009aff07000478a300ce
:102e600026003a006120e1002500320009f8a300a5
:102e700025003a006420e10021003200f507b1008e
:102e80000508a300020032000000400081804800d5
:102e90006044b80003102000020020000000400041
:102ea000818048000805440089854c000a054100de
:102eb0008b8549000a0550008b85580003003300bc
:102ec0000a00be0002047400838474008301d100f0
:102ed0000281d300830f7100f0ff3a008904d10012
:102ee0000884d3006001490082017800c1adde0092
:102ef000fb07b0004dff070098ff37000960a000f6
:102f00000800be0095ff370012022000f27488000e
:102f1000f0ff2f00f1ff270090ff37006022b8007c
:102f2000060220000000d0008180d2000482d2007e
:102f30008582d2000000a0000202520083825a0063
:102f4000030031000202420083824a000000a10017
:102f50000603e900f3ff3a0000000600020ab90088
:102f6000001bb9000200b80081004200810043004c
:102f700000000600889fbe008a9fbe003004be008d
:102f80002005be000404440085844c0006054d0065
:102f900087854d000898be000a90be000440e100fd
:102fa00005c8e10006d0e10007d8e10002003100c9
:102fb000680040001008e8004f05be004f04be0046
:102fc000000006001000fa00889fbe008a9fbe0025
:102fd000110020000605be000404be003002be0041
:102fe0002003be00c4b79f00d5b79f00e6b79f007f
:102ff000f7b79f000802520089825a000a035b005b
:103000008b835b0084bf9f0095bf9f00a6bf9f007e
:10301000b7bf9f000498be000698be004fb297004d
:10302000dfb297006fb39700ffb397000820e1006d
:1030300009a8e1000ab0e1000bb8e1000100390085
:103040008000eb004f05be00108810004f04be004a
:103050000080fa00000006001400fa00889fbe00fd
:103060008a9fbe008c9fbe000006eb003e0007005a
:10307000ccb79f00bcb79f00acb79f009cb79f0028
:103080008cb79f000605be000404be000d0420009e
:103090004fb39700bfb29700860343002fb297004b
:1030a000e00f530004003d003d0007000f0040000a
:1030b000b0ff070003003700390007000f00400091
:1030c000c0ff0700cfb2970095bf9f00e08f52006e
:1030d000090035002b000700140020000500200027
:1030e0006033b8000000720081807200020173003a
:1030f000838173001c0007000c06e8008d0f56004a
:10310000e3ff3a001fba9700e00f520005003d00b0
:103110000802be000a03be0000fe2f000f004000a0
:1031200094ff07004faa9700e00f520008003a00f2
:103130000fb497009fb497002fb59700bfb59700c5
:10314000d8b79f00e9b79f00fab79f008bbf9f00d9
:103150000c0007004f06be004f05be004f04be0026
:103160000080fa00000006000100070000000600d1
:1031700090b79f00a1b79f00b2b79f00c3b79f0051
:103180000000060001000700000006001fb09700c5
:10319000afb097003fb19700cfb197000000060095
:1031a0004f2bde00f9ff0700868373008582420003
:1031b0004f23de00a7b79f00868272000402420000
:1031c00095b79f00ffaa97004f2bde008582420033
:1031d0000602720084b79f006faa97004f23de009b
:1031e0000402420086827200f5af9f004f18de0095
:1031f00000027200e5ff0700e4af9f0000004000fe
:103200008180480002014900838149000802be0014
:103210000a03be00d6ff070000fe2f0000000600d4
:10322000881f780018002000881f78008aff070098
:103230008f87e9004f04780000000600801feb0034
:1032400085ff07008f87e90000000600889fbe0009
:103250008a9fbe00e00f5000e08f5800e00f590039
:10326000e08f59000c003d006044b8006055b80084
:103270000000540081805c0002015d0083815d00dc
:10328000180020001500070008003d001800070086
:103290000004eb00050037000004eb000f000700fe
:1032a00002003d001200070018002000dcff0700ac
:1032b000e00f5400060032006022b8006033b8000e
:1032c0000000520081805a0002015b0083815b0094
:1032d0004f05be004f04be0000000600e00f520084
:1032e000e08f5a00e00f5b00e08f5b0000000600fb
:1032f0006044b8006055b8000402540085825c0048
:1033000006035d0087835d0000000600889fbe0005
:103310008a9fbe008c1f7800e00f5000e08f58009d
:10332000e00f5900e08f59000d003d006044b800e7
:103330006055b8001c0020000000540081805c0033
:1033400002015d0083815d000820e10009a8e10021
:103350000ab0e1000bb8e1000d003d0008003700a5
:103360000006eb00e00f5200e08f5a00e00f5b0018
:10337000e08f5b0006003d006044b8006055b80077
:103380000402540085825c0006035d0087835d00b3
:10339000aaff0700e00f5600060032006022b800c6
:1033a0006033b8000000520081805a0002015b00c7
:1033b00083815b004f0678004f05be004f04be00be
:1033c00000000600889fbe008a9fbe008c1f780008
:1033d0000006eb00e00f5000e08f5800e00f5900ae
:1033e000e08f590007003d006044b8006055b80008
:1033f0001c0020000000540081805c0002015d0080
:1034000083815d00e00f5200e08f5a00e00f5b0007
:10341000e08f5b0007003d006044b8006055b800d5
:103420000c00a2000402540085825c0006035d00cb
:1034300087835d0066000700e00f5600060032003b
:103440006022b8006033b8000000520081805a004a
:1034500002015b0083815b004f0678004f05be00d0
:103460004f04be0000000600889fbe008a9fbe0079
:10347000841f780028fe07004f00780011003300f9
:10348000f0ff2f00838f6c0006003b0004056500f1
:103490000a00a7000800370009f0a600100020006d
:1034a00008003700820f5400838f5c00030039004e
:1034b0001000200001003e000000200009f0a700dd
:1034c0000000ea004f05be004f04be000000e0000f
:1034d00000000600881f7800030478000300e00065
:1034e00007003d0060001000e08018006001190036
:1034f000e081190002003b0001f02d0003003700bd
:103500000400070008f0a70001f0a0004f047800b5
:1035100000000600889fbe008a9fbe0000827000e7
:103520000402710004827100260032000004be0013
:103530000200be006011b8006b0920009502200057
:103540000182cf000a0039000541b1000082cf009e
:10355000070039000541b1000982cf00040039009d
:103560000541b1000882cf00010039000541b100da
:1035700005425200120032000a003b0082817100b5
:10358000610164008100d1000080d3008984d300f0
:103590000884d3008b05e8000442e800f7ff3a00f6
:1035a000070037000804440089844c0000004800ec
:1035b000818048008b05e9000442e900f9ff3a00e8
:1035c0009afd07004f05be004f04be000000060034
:1035d000889fbe008a9fbe008c9fbe000404b80076
:1035e0000506b8008904460060854e000606b8004e
:1035f0000a054600e0854e000706b8008b05460028
:10360000040eb800890446000a854e00e0854d008e
:10361000050eb8000a0546008b854e00060eb80060
:103620008b0546000416b8000a0546008b854e003f
:103630000516b8008b054600041eb8008b05460031
:103640000800be000a01be004f06be004f05be00c6
:103650004f04be000000060000c0da0000000600b3
:0836600000c0da0000000600c2
:020000040000fa
:0200000401f009
:04000000e6bf000057
:020000040000fa
:0200000401f009
:04000400ff7f00007a
:020000040000fa
:0200000401f009
:040008007fff000076
:020000040000fa
:0200000401f009
:04001400ffff0000ea
:020000040000fa
:10000800bc020000bc020000bc020000bc020000f0
:10001800bc020000bc020000bc020000bc020000e0
:10002800766f0000bc020000bc020000bc020000a9
:10003800bc020000bc020000fc6e0000bc02000014
:10004800bc0200008c7700002c770000aa4a000050
:10005800bc020000bc020000ee5d0000bc02000013
:10006800bc020000bc020000bc020000bc02000090
:10007800bc020000ce770000aa010000bc0200000c
:10008800bc020000bc020000bc020000bc02000070
:10009800bc020000bc020000bc020000bc02000060
:1000a800bc020000bc020000bc020000bc02000050
:1000b800bc020000bc020000bc020000bc02000040
:1000c800bc020000bc020000bc020000bc02000030
:1000d800bc020000bc020000bc020000bc02000020
:1000e800bc020000bc020000bc020000bc02000010
:0800f800bc020000bc02000084
:020000040000fa
:10010800bc020000bc020000bc020000bc020000ef
:10011800bc020000bc020000bc020000bc020000df
:10012800766f0000bc020000bc020000bc020000a8
:10013800bc020000bc020000fc6e0000bc02000013
:10014800bc0200008c7700002c770000aa4a00004f
:10015800bc020000bc020000ee5d0000bc02000012
:10016800bc020000bc020000bc020000bc0200008f
:10017800bc020000ce770000aa010000bc0200000b
:10018800bc020000bc020000bc020000bc0200006f
:10019800bc020000bc020000bc020000bc0200005f
:1001a800bc020000bc020000bc020000bc0200004f
:1001b800bc020000bc020000bc020000bc0200003f
:1001c800bc020000bc020000bc020000bc0200002f
:1001d800bc020000bc020000bc020000bc0200001f
:1001e800bc020000bc020000bc020000bc0200000f
:0801f800bc020000bc02000083
:020000040000fa
:103668000c070000574500004c4300004f4d000078
:1036780045200000746f0000207400006865000099
:103688002053000065720000436f00006d200000a9
:10369800707200006f7400006f6300006f6c0000b0
:1036a800206f00006e200000652d0000507500009e
:1036b800636b00000d0a00007468000065200000bc
:1036c80045500000464c000020650000647500006d
:1036d80063610000746900006f6e000020720000d2
:1036e8006f6200006f7400002074000079700000a1
:1036f800652000002248000022200000666f0000bc
:1037080072200000686500006c7000000d0a00005f
:10371800006100002c250000642c000025640000d6
:103728002c250000640d00000a000000422c000057
:10373800256400000d000000620d00000a00000072
:10374800632c0000256400000d0a000000440000fe
:103758002c250000642c0000256400000d000000ea
:10376800640d00000a000000652c000025640000bc
:103778002c250000640d00000a000000462c000003
:10378800256400000d000000660d00000a0000001e
:1037980067200000495200002063000068650000af
:1037a800636b0000203a00002030000078250000fc
:1037b800782c00002061000064640000726500003d
:1037c80073730000203a00002030000078250000c4
:1037d800782c000020640000617400006120000063
:1037e8003a20000030780000257800000d0a00001b
:1037f800000a0000002200004122000020200000f2
:10380800202000002020000020200000204100008f
:1038180063630000656c0000657200006f6d000056
:1038280065740000657200000d0a000000220000a7
:10383800422c00002322000020200000202000004d
:1038480020200000204200006f6400007920000062
:103858006c65000064200000303d00006f660000c9
:1038680066200000313d00006f6e0000203200002d
:103878003d6900006e760000657200007365000007
:103888000d0a000000220000432200002020000052
:1038980020200000202000002020000020530000ed
:1038a800656c000065630000746f00007220000002
:1038b800706f000073690000746900006f6e00008b
:1038c8000d0a000000220000442c0000232c0000f8
:1038d80023220000202000002020000020530000a8
:1038e80065740000206d00006f7400006f720000a6
:1038f800207300007065000065640000206c000003
:1039080065660000742c000072690000676800009a
:10391800740d00000a00000022450000222000006b
:10392800202000002020000020200000202000008f
:1039380047650000742000006d6f0000746f000080
:1039480072200000737000006565000064200000ac
:103958006c650000667400002c7200006967000046
:10396800687400000d0a000000220000462c0000c8
:10397800232200002020000020200000202000003a
:1039880020460000726f00006e740000206c00007a
:1039980065640000203000003d6f0000666600008e
:1039a800203100003d6f00006e200000323d000015
:1039b800696e00007665000072730000650d0000f6
:1039c8000a000000224700002220000020200000fa
:1039d8002020000020200000202000004952000084
:1039e80020720000656300006569000076650000cc
:1039f800720d00000a0000002248000022090000a1
:103a0800202000002020000020480000656c0000f5
:103a1800700d00000a00000022490000222000006a
:103a2800202000002020000020200000202000008e
:103a38004765000074200000636100006d650000a8
:103a4800726100002070000061720000616d00006a
:103a580065740000657200000d0a00000022000075
:103a68004a2c0000232c0000232c0000232c0000eb
:103a7800232200002053000065740000206300002a
:103a8800616d000065720000612000007061000037
:103a9800726100006d65000074650000722000000e
:103aa8006d6f0000646500002c77000069640000f9
:103ab800746800002c6800006569000067740000e5
:103ac800682c00007a6f00006f6d0000283100003c
:103ad8002c340000206f00007220000038290000fc
:103ae8000d0a0000002200004b22000020200000e8
:103af800202000002020000020200000204300009b
:103b0800616c000069620000726100007465000069
:103b180020700000726f0000786900006d69000075
:103b28007479000020730000656e0000736f000058
:103b3800727300000d0a0000002200004c2c0000e7
:103b4800232c000023220000202000002020000059
:103b5800204c000065640000206e0000756d0000b8
:103b680062650000722c0000303d00006f660000a6
:103b780066200000313d00006f6e0000203200001a
:103b88003d6900006e7600006572000073650000f4
:103b98000d0a0000002200004d2200002020000035
:103ba80020200000202000002020000020460000e7
:103bb8006c6f00006f72000020730000656e0000db
:103bc800736f0000727300000d0a000000220000ed
:103bd8004e220000202000002020000020200000ad
:103be8002020000020500000726f0000786900005b
:103bf8006d690000747900000d0a000000220000c1
:103c08004f2200002020000020200000202000007b
:103c180020200000204c0000696700006874000044
:103c280020730000656e0000736f0000727300005f
:103c38000d0a000000220000502c0000232c000078
:103c48002322000020200000202000002053000034
:103c580065740000206d00006f7400006f72000032
:103c6800207000006f73000069740000696f000025
:103c78006e2000006c650000667400002c72000065
:103c880069670000687400000d0a00000022000047
:103c980051220000202000002020000020200000e9
:103ca800202000002047000065740000206d0000ff
:103cb8006f7400006f720000207000006f730000c6
:103cc80069740000696f00006e2000006c650000d8
:103cd800667400002c7200006967000068740000b8
:103ce8000d0a0000002200005222000020200000df
:103cf800202000002020000020200000205200008a
:103d08006573000065740000206500002d700000d8
:103d1800756300006b0d00000a00000022530000cc
:103d28002220000020200000202000002020000089
:103d380020200000537400006f7000002065000010
:103d48002d700000756300006b200000616e00009c
:103d58006420000074750000726e0000206f00007f
:103d680066660000206c000065640000730d0000aa
:103d78000a00000022550000222000002020000038
:103d880020200000202000002020000047650000bf
:103d9800742000006d690000637200006f700000fd
:103da800686f00006e650000206100006d70000003
:103db8006c69000074750000646500000d0a00005d
:103dc80000220000562200002020000020200000d1
:103dd800202000002020000020560000657200000e
:103de800736900006f6e0000206f000066200000fd
:103df80053650000724300006f6d00000d0a00005b
:103e0800006900002c250000642c000025640000d7
:103e18002c250000642c0000256400002c250000df
:103e2800640d00000a0000004a2c00002564000010
:103e38002c250000642c0000256400002c250000bf
:103e4800642c0000256400002c250000640d00008f
:103e5800006a00000d0a0000006b00002c20000022
:103e68005374000061720000746900006e670000fe
:103e780020630000616c000069620000726100004c
:103e8800746900006f6e0000202d000020520000b1
:103e9800656d00006f76000065200000616e00000f
:103ea800792000006f6200006a65000063740000fa
:103eb800206900006e200000736500006e7300002a
:103ec8006f72000073200000726100006e670000ce
:103ed800650d00000a0000006b2c00002043000064
:103ee800616c000069620000726100007469000082
:103ef8006f6e000020660000696e000069730000a4
:103f080068650000640d00000a0000004c2c0000e9
:103f1800256400002c250000640d0000006c0000e2
:103f28000d0a0000006d00002c250000642c000024
:103f3800256400002c250000640d00000a00000024
:103f48006e2c0000256400002c250000642c000065
:103f5800256400002c250000642c00002564000066
:103f68002c250000642c0000256400002c2500008e
:103f7800640d00000a0000006f2c0000256400009a
:103f88002c250000642c0000256400002c2500006e
:103f9800642c0000256400002c250000642c00001f
:103fa800256400002c250000640d00000a000000b4
:103fb800502c0000256400002c250000640d000032
:103fc800007000000d0a0000007100002c250000a0
:103fd800642c0000256400000d0a00000072000037
:103fe8000d0a0000007300000d0a000000750000b3
:103ff8002c250000642c0000256400002c250000fe
:10400800640d00000a000000762c000056650000d0
:1040180072730000696f00006e200000312e0000ee
:10402800352e0000332000004e6f0000766500003a
:104038006d6200006572000020320000303100001f
:104048003620000028570000656200006f740000e9
:10405800732900000d0a00000048000057200000e6
:104068007665000072730000696f00006e3a000008
:1040780020250000580d00000a000000582c000000
:10408800256400000d0000007a2c0000436f00003a
:104098006d6d0000616e0000642000006e6f00000e
:1040a80074200000666f0000756e0000640d00004b
:0440b8000a000000fa
:020000040000fa
:1040bc002a00fa00889fbe008a1f780040179800db
:1040cc000002eb00040f78000002eb0014079800cc
:1040dc0011002000800020002d0d07006022b80088
:1040ec002407980035079800060037002e02900030
:1040fc00be02900061024200e0824a002407980050
:10410c00350798002e039000be039000f44728005a
:10411c00e5012000840f5300858f5b00f3ff340012
:10412c006d0e07006022b800240798003507980030
:10413c00060037002e029000be0290006102420081
:10414c00e0824a0024079800350798002e0390005f
:10415c00be039000f4d3200035002000840f5300e0
:10416c00858f5b00f3ff34000d0037001e027800d2
:10417c0004024200ce129000048242008002eb0046
:10418c00050a78001e0278004222dd000402470076
:10419c00680342006022b800048bbe001e0fe800ca
:1041ac001e027800e70f5200f0ff34002c0037009d
:1041bc000002eb00040f7800230037001e02780089
:1041cc004222dd00e8024700048242001404be00d3
:1041dc001e027800040078002829070000027800ed
:1041ec00cfa2de000802420089824a001e0378003a
:1041fc004233dd000603470068034300048bbe0016
:10420c006022b80024079800350798000600370094
:10421c002e029000be02900061024200e0824a0031
:10422c0024079800350798002e039000be039000d9
:10423c00743e200005002000840f5300858f5b0026
:10424c00f3ff34001e0fe8001e027800e70f520047
:10425c00daff34001e0290000402e80014079800f4
:10426c009e02900034062000848f5200d0ff340050
:10427c000002eb00040f78001b0037001e027800d0
:10428c0004024200ce129000048542001e02780007
:10429c004222dd00e8024700048242001402be0004
:1042ac000400be0057fa07000004be001e02900076
:1042bc00cfa2de000400be0052fa07000002be00ce
:1042cc000401be000800be00bdf907000002be00dc
:1042dc000400be000ffa07000002be0004027800c2
:1042ec00040d78001e0fe8001e027800e70f520044
:1042fc00e2ff34004f0578004f04be000080fa0046
:10430c00000006006800fa00889fbe008a9fbe006d
:10431c008c9fbe000042eb00044f78000002eb00c3
:10432c00740f98000002eb00041798000002eb00d9
:10433c00141798000002eb00241798000002eb0001
:10434c00540798000002eb00640798000002eb0091
:10435c00740798000002eb00040f98000e00780020
:10436c006003b000070009000018eb000082eb00ae
:10437c00342798000042eb00245798000042eb00d1
:10438c00345798000042eb00044f98009f29070017
:10439c00c5250700ec1e0700192b07000040eb0099
:1043ac00ea130700ea290700c6260700043a800032
:1043bc0061026200e00f5200020032004007a900c7
:1043cc000000fe00640420000e02420013002000d6
:1043dc0004017800e1ff2f00f0072000442a0700b9
:1043ec0014002000541798008402200064179800d1
:1043fc00840220007417980084002000041f980089
:10440c00ee1290007e12900004aab900040278000b
:10441c0004024200340798007b2207005e139000d0
:10442c000e1a9000040478000e1a90008401780093
:10443c00fe1290000e1a900004aab9000402780033
:10444c0004017800ee1290000e1a900004aab90034
:10445c000402780024379800fe1290000e1a900087
:10446c0004aab90004027800051e200084825200c0
:10447c0024002000110009008402d80000027800fa
:10448c0034379800ee1290000e1a900004aab9006e
:10449c0004027800052820008482520024002000a9
:1044ac00110009008402d80000027800840378000f
:1044bc008802780003027800820178002e31900087
:1044cc00be30900007007800ee2107003c22070068
:1044dc00dd1107008105200040b329007d2a07006b
:1044ec00882a070000027800e00f5200fcff3a0017
:1044fc005f0037002f2707000042780024579800f0
:10450c002627070000427800345798003e5290004e
:10451c00e04f5200030032003e529000e84f520030
:10452c0053003a00ae5290000e4a900084cf5200d5
:10453c004f0032002e5290000402fb006123b900a0
:10454c000082eb008082eb000602420087824a0068
:10455c008600200007002000860f5200878f5a002b
:10456c0037003e0004600100080037000c003700e3
:10457c001000370014003700180037001c003700fb
:10458c002000370024003700280037008425200045
:10459c00740f9800c4122000041798002c003700e8
:1045ac0084252000740f980084252000041798009f
:1045bc0027003700c4122000740f980084252000b7
:1045cc00041798002200370084252000740f9800ef
:1045dc0084da2f00041798001d0037000002eb004e
:1045ec00740f98000002eb000417980018003700b5
:1045fc0084da2f00740f980084252000041798008b
:10460c001300370084da2f00740f980044ed2f004c
:10461c00041798000e00370084da2f00740f9800ee
:10462c0084da2f00041798000900370044ed2f009e
:10463c00740f980084da2f000417980004003700d8
:10464c000002eb00041798000e129000740f9800f3
:10465c002e529000044f98000e1290000400780027
:10466c00421e07007e0a900004007800841e07009a
:10467c007a02470004007800372a0700000278000d
:10468c00e00f52009bff32002e5a9000e04f520078
:10469c0020033d000002eb00140798002e5a9000f6
:1046ac000402fb000402ea006123b900f4fb2f00b2
:1046bc00f5ff2f000602420087824a0046032000c5
:1046cc0007002000860f5200878f5a00f0023e0030
:1046dc00046001007d003700ed023700ec0237006a
:1046ec002101370051013700e9023700e802370099
:1046fc00e702370074013700e5023700e4023700a7
:10470c0099013700c0013700e80137000902370072
:10471c002a0237005a023700dd023700dc0237006c
:10472c00db023700c9023700d9023700d802370044
:10473c00d7023700d6023700d5023700d402370033
:10474c00d3023700d2023700d1023700d002370033
:10475c00cf02370014003700cd023700cc023700ef
:10476c00cb023700ca023700c9023700c802370033
:10477c00c7023700c6023700c5023700c402370033
:10478c00c3023700c2023700c1023700c002370033
:10479c00bf023700be023700bd023700bc02370033
:1047ac00bb02370063023700110020000000eb0051
:1047bc00be0f07000002780054079800110020007b
:1047cc0010002000b90f0700000278006407980061
:1047dc001100200020002000b40f07000002780018
:1047ec00740798005e0290008442780006ea20006c
:1047fc001e02900004024300054a78001e0290003d
:10480c000402e800140798005e02900048a2de0043
:10481c008442780006ea20001e0290000402430045
:10482c00054a78001e0290000402e8001407980064
:10483c006e0290008442780006ea20001e0290006e
:10484c0004024300054a78001e0290000402e800ae
:10485c00140798006e02900048a2de008442780093
:10486c0006ea20001e02900004024300054a78006c
:10487c001e0290000402e800140798007e029000cb
:10488c008442780006ea20001e02900004024300d5
:10489c00054a78001e0290000402e80014079800f4
:1048ac007e02900048a2de008442780006ea2000d6
:1048bc001e02900004024300054a78001e0290007c
:1048cc000402e80014079800720237004405200027
:1048dc000e0242000400780002110700440520007b
:1048ec000e024200850420008e824200b41a780029
:1048fc00a4127800e482420064024200b41a7800e8
:10490c00a4127800e482420064024200b41a7800d7
:10491c00a4127800e4824200640242008404200065
:10492c000e024200240f98002e0a90009442780048
:10493c0006ea20001e02900004024300054a78009b
:10494c001e0290000402e800140798002e0a900042
:10495c000402e800240f98002e0a9000944278007c
:10496c0006ea20001e02900004024300054a78006b
:10497c001e0290000402e800140798002e0a900012
:10498c000402e800240f98002e0a9000944278004c
:10499c0006ea20001e02900004024300054a78003b
:1049ac001e0290000402e800140798002e0a9000e2
:1049bc000402e800240f98002e0a9000944278001c
:1049cc0006ea20001e02900004024300054a78000b
:1049dc001e0290000402e8001407980084042000d2
:1049ec000e02420064024200240f98002e0a90002e
:1049fc009442780006ea20001e0290000402430054
:104a0c00054a78001e0290000402e8001407980082
:104a1c002e0a90000402e800240f98002e0a900041
:104a2c009442780006ea20001e0290000402430023
:104a3c00054a78001e0290000402e8001407980052
:104a4c002e0a90000402e800240f98002e0a900011
:104a5c009442780006ea20001e02900004024300f3
:104a6c00054a78001e0290000402e8001407980022
:104a7c002e0a90000402e800240f98002e0a9000e1
:104a8c009442780006ea20001e02900004024300c3
:104a9c00054a78001e0290000402e80014079800f2
:104aac00840420000e02420068024200240f980089
:104abc002e0a90009442780006ea20001e02900014
:104acc0004024300054a78001e0290000402e8002c
:104adc00140798002e0a90000402e800240f980096
:104aec002e0a90009442780006ea20001e029000e4
:104afc0004024300054a78001e0290000402e800fc
:104b0c00140798002e0a90000402e800240f980065
:104b1c002e0a90009442780006ea20001e029000b3
:104b2c0004024300054a78001e0290000402e800cb
:104b3c00140798002e0a90000402e800240f980035
:104b4c002e0a90009442780006ea20001e02900083
:104b5c0004024300054a78001e0290000402e8009b
:104b6c0014079800cb013700000000007b024700bf
:104b7c0004007800f828070000027800e00f5200cb
:104b8c00faff3200000000007c02470004007800ad
:104b9c00f128070000027800e00f5200faff320003
:104bac003e5a90008482fb004e5a90000402fb0097
:104bbc004822dd0004824200041798000000000027
:104bcc007b02470004007800e3280700000278000d
:104bdc00e00f5200faff3200000000007c02470098
:104bec0004007800dc28070000027800e00f520077
:104bfc00faff32003e5a90008482fb004e5a90001d
:104c0c000402fb004822dd0004824200740f98006d
:104c1c000e12900004007800d41c07007e0a90004d
:104c2c0004007800161d07009a0137000e12900040
:104c3c008442780006ea20001e0290000402430021
:104c4c00054a78001e0290000402e8001407980040
:104c5c000e12900048a2de008442780006ea200082
:104c6c001e02900004024300054a78001e029000c8
:104c7c000402e800140798007e0a90008442780031
:104c8c0006ea20001e02900004024300054a780048
:104c9c001e0290000402e800140798007e0a90009f
:104cac0048a2de008442780006ea20001e02900032
:104cbc0004024300054a78001e0290000402e8003a
:104ccc0014079800730137001e029000e3024200a3
:104cdc0004ea20000482420004007800bfed0700c3
:104cec0014c0b300044f78005e1290008442780028
:104cfc0006ea20001e02900004024300054a7800d8
:104d0c001e0290000402e800140798006e12900036
:104d1c008442780006ea20001e0290000402430040
:104d2c00054a78001e0290000402e800140798005f
:104d3c007e1290008442780006ea20001e02900049
:104d4c0004024300054a78001e0290000402e800a9
:104d5c00140798009e0290003e02900004824200cc
:104d6c00140798004b013700000000007b0247003d
:104d7c00040078007828070000027800e00f520049
:104d8c00faff3200000000007c02470004007800ab
:104d9c007128070000027800e00f5200faff320081
:104dac003e5a90000402fb00e80f52000300320050
:104dbc00e90f5200060032000a0037004e5a9000ec
:104dcc000402fb00040078004e0b07000d003700b6
:104ddc004e5a90000402fb0004007800690b070097
:104dec00080037004e5a90008402fb003e5a900097
:104dfc000402fb008500780004007800e409070039
:104e0c000000000023013700592707000002eb00c7
:104e1c0024079800200037002e02900004427800ee
:104e2c00044242000442e8008440780000ccb30005
:104e3c00572707000042780006ea20009e029000e7
:104e4c0085024300844a78001e0290000402e800a8
:104e5c00140798002e02900004427800044242008d
:104e6c008440780000ccb30049270700004278004a
:104e7c0006ea20009e02900085024300844a7800d6
:104e8c001e0290000402e800140798002e02900005
:104e9c000402e800240798002e029000e20f520052
:104eac00ddff340036270700fa0037000002eb0064
:104ebc00240798001b0037002e0290000400780095
:104ecc00ee25070000027800340f98003e0a90008f
:104edc008442780006ea20001e029000040243007f
:104eec00054a78001e0290000402e800140798009e
:104efc003e0a900048a2de008442780006ea2000b8
:104f0c001e02900004024300054a78001e02900025
:104f1c000402e800140798002e0290000402e80036
:104f2c00240798002e029000e70f5200e2ff340095
:104f3c00d80037000002eb00240798001b00370054
:104f4c002e02900004007800022607000002780070
:104f5c00340f98003e0a90008442780006ea200044
:104f6c001e02900004024300054a78001e029000c5
:104f7c000402e800140798003e0a900048a2de00e4
:104f8c008442780006ea20001e02900004024300ce
:104f9c00054a78001e0290000402e80014079800ed
:104fac002e0290000402e800240798002e029000c4
:104fbc00e70f5200e2ff3400b6003700000000009b
:104fcc007b02470004007800e3270700000278000a
:104fdc00e00f5200faff3200000000007c02470094
:104fec0004007800dc27070000027800e00f520074
:104ffc00faff32003e5a90008482fb004e5a900019
:10500c000402fb004822dd000482420024179800b1
:10501c00000000007b02470004007800ce27070048
:10502c0000027800e00f5200faff3200000000008e
:10503c007c02470004007800c727070000027800b4
:10504c00e00f5200faff32003e5a90008482fb00bf
:10505c004e5a90000402fb004822dd0004824200fc
:10506c00141798002e12900004007800681c07009a
:10507c001e12900004007800701c07008500370099
:10508c005e1c070000027800340f98003e0a900066
:10509c008442780006ea20001e02900004024300bd
:1050ac00054a78001e0290000402e80014079800dc
:1050bc003e0a900048a2de008442780006ea2000f6
:1050cc001e02900004024300054a78001e02900064
:1050dc000402e80014079800531c07000002780033
:1050ec00340f98003e0a90008442780006ea2000b3
:1050fc001e02900004024300054a78001e02900034
:10510c000402e800140798003e0a900048a2de0052
:10511c008442780006ea20001e029000040243003c
:10512c00054a78001e0290000402e800140798005b
:10513c00580037000000eb007424070000027800d0
:10514c00340f98003e0a90008442780006ea200052
:10515c001e02900004024300054a78001e029000d3
:10516c000402e800140798003e0a900048a2de00f2
:10517c008442780006ea20001e02900004024300dc
:10518c00054a78001e0290000402e80014079800fb
:10519c00100020005d24070000027800340f9800f6
:1051ac003e0a90008442780006ea20001e0290001d
:1051bc0004024300054a78001e0290000402e80035
:1051cc00140798003e0a900048a2de008442780042
:1051dc0006ea20001e02900004024300054a7800f3
:1051ec001e0290000402e800140798002000200022
:1051fc004624070000027800340f98003e0a900005
:10520c008442780006ea20001e029000040243004b
:10521c00054a78001e0290000402e800140798006a
:10522c003e0a900048a2de008442780006ea200084
:10523c001e02900004024300054a78001e029000f2
:10524c000402e800140798001200370004802000c4
:10525c00440f9800812520004e0890001d27070060
:10526c00245c8000340f98003e0a90008442780041
:10527c0006ea20001e02900004024300054a780052
:10528c001e0290000402e800140798000100370089
:10529c0000000000000000007a02470004007800c3
:1052ac002d27070000027800e00f5200faff3200b1
:1052bc002e5a9000e04f5200f8fc3a001e0290006b
:1052cc00e00f52000d0432001e427800e04f5200f5
:1052dc00070032000042eb00044f78000000000091
:1052ec009dec070000027800e00f5200fcff32003a
:1052fc009e00900000ea2000f62607000000000047
:10530c000027070000027800e00f5200fcff3a0073
:10531c00fa0337002e5a9000e04f5200f703340086
:10532c00030037007a024700040078000a270700c0
:10533c002e5a9000ea4f5200faff32002e5a90007b
:10534c00ed4f5200f7ff3200ae5a900004ea2000f5
:10535c00054a780014002000140798007a024700d0
:10536c0004007800fc26070000027800e00f5200d1
:10537c0008003200ae5a900006ea20001e0290008f
:10538c0004024300054a78001e0290000402e80063
:10539c00140798002e5a9000ea4f52000300320076
:1053ac002e5a9000ed4f5200ecff3a0005ea200017
:1053bc001e029000048242008042eb00054a7800f5
:1053cc001e0290000402e8001407980004ea200072
:1053dc00144278000402fb000400780084ec0700ff
:1053ec00000278008442780004ea2000054a780024
:1053fc0004ea2000144278000402fb006123b90087
:10540c00f4fb2f00f5ff2f000602420087824a00b2
:10541c007601200007002000860f5200878f5a006b
:10542c00ad033e0004600100170037003800370060
:10543c004a003700730037008a0037009d003700a0
:10544c00af003700ca003700640137007d01370018
:10545c00f6013700080237002002370076023700c9
:10546c00b7023700e7023700ff023700140337009a
:10547c001c03370098033700330337004e03370003
:10548c009d033700650337000000eb001a0c070082
:10549c00000278005407980010002000160c07003a
:1054ac00000278006407980020002000120c07000e
:1054bc000002780074079800fe029000851f7800a7
:1054cc006e009000801f7800de009000811f780035
:1054dc00d4b82900841f780000ea2000c7ed07002b
:1054ec00e887570000ea2000bded070000027800b5
:1054fc008400780000ea2000762607008126070049
:10550c0000027800e00f5200fcff3a007b033700ea
:10551c00840220000e024200841f7800a4b92900e6
:10552c00841f780000ea2000caed0700e4875700ca
:10553c004e12900004007800720907003100200020
:10554c0000ba2900632607006e26070000027800c7
:10555c00e00f5200fcff3a0068033700341780005c
:10556c004622de00614262008482fb003417800018
:10557c004822de00614262000483fb003417800085
:10558c004922de00614262000482fb0004024200f8
:10559c000402430004024200040378003417800024
:1055ac004722de00614262000482fb0004024300d9
:1055bc000402420004824200040f98000e0a90007c
:1055cc00841f780044ba2900841f780000ea200068
:1055dc008aed0700e487570000ea200080ed070001
:1055ec00000278008400780000ea200039260700c9
:1055fc004426070000027800e00f5200fcff3a003e
:10560c003e0337007e024700841f7800040220000e
:10561c000e024200841f7800b4ba2900841f78005f
:10562c0000ea20008bed0700e68757000e12900071
:10563c00040078004d1a07007e0a900004007800e0
:10564c008f1a07003100200040bb290021260700db
:10565c002c26070000027800e00f5200fcff3a00f5
:10566c0026033700fe0a90000e129000851f78006a
:10567c00841f780084bb2900841f780000ea200076
:10568c005eed0700e687570000ea200054ed0700a6
:10569c00000278008400780000ea20000d26070044
:1056ac001826070000027800e00f5200fcff3a00b9
:1056bc0012033700840220000e024200841f78007f
:1056cc0024bc2900841f780000ea200061ed07004b
:1056dc00e48757004e129000040078002909070057
:1056ec003100200080bc2900fa25070005260700a0
:1056fc0000027800e00f5200fcff3a00ff02370076
:10570c00ac220700004278008484fb00a32207002f
:10571c00004278000484fb009a22070000427800c3
:10572c000482fb00891f7800881f7800841f780092
:10573c00c4bc2900841f780000ea20002fed07006c
:10574c00e887570000ea200025ed070000027800ea
:10575c008400780000ea2000de250700e925070018
:10576c0000027800e00f5200fcff3a00e302370021
:10577c0011002000d0bf2900d6250700e125070025
:10578c0000027800e00f5200fcff3a00b10120004b
:10579c00f0bf2900cf250700da25070000027800aa
:1057ac00e00f5200fcff3a00b1022000b0c129000a
:1057bc00c8250700d325070000027800e00f52002f
:1057cc00fcff3a00f101200070c42900c12507003c
:1057dc00cc25070000027800e00f5200fcff3a00d5
:1057ec008102200070c62900ba250700c5250700d4
:1057fc0000027800e00f5200fcff3a00810220000a
:10580c0000c92900b3250700be2507000002780057
:10581c00e00f5200fcff3a00c102200090cb29009f
:10582c00ac250700b725070000027800e00f5200f6
:10583c00fcff3a009101200060ce2900a52507004d
:10584c00b025070000027800e00f5200fcff3a0080
:10585c00f100200000d029009e250700a925070093
:10586c0000027800e00f5200fcff3a0021022000f9
:10587c0000d1290097250700a22507000002780017
:10588c00e00f5200fcff3a003104200030d3290015
:10589c00902507009b25070000027800e00f5200be
:1058ac00fcff3a009102200070d7290089250700df
:1058bc009425070000027800e00f5200fcff3a002c
:1058cc00d102200010da2900822507008d2507005f
:1058dc0000027800e00f5200fcff3a00b1012000fa
:1058ec00f0dc29007b2507008625070000027800e4
:1058fc00e00f5200fcff3a0071012000b0de2900dd
:10590c00742507007f25070000027800e00f520085
:10591c00fcff3a00b101200030e029006d250700a2
:10592c007825070000027800e00f5200fcff3a00d7
:10593c00b1022000f0e1290066250700712507005f
:10594c0000027800e00f5200fcff3a00b102200088
:10595c00b0e429005f2507006a25070000027800e3
:10596c00e00f5200fcff3a00a101200070e7290073
:10597c00582507006325070000027800e00f52004d
:10598c00fcff3a00b102200020e929005125070054
:10599c005c25070000027800e00f5200fcff3a0083
:1059ac0061022000e0eb29004a250700552507007d
:1059bc0000027800e00f5200fcff3a00f1012000d9
:1059cc0050ee2900432507004e2507000002780001
:1059dc00e00f5200fcff3a00480237008e1b90008b
:1059ec007e139000ee1290005e1290003e0090002c
:1059fc00801f7800871f7800861f7800851f78002d
:105a0c00841f780054f02900841f780000ea2000dd
:105a1c007aec0700ec87570000ea200070ec0700d6
:105a2c00000278008400780000ea20002925070095
:105a3c003425070000027800e00f5200fcff3a000a
:105a4c002e0237000082eb00141f98000082eb003e
:105a5c00241f9800440320000e024200841f78008b
